{
  "_format": "hh-sol-artifact-1",
  "contractName": "Farmoney",
  "sourceName": "src/contracts/farmoney.sol",
  "abi": [
    {
      "inputs": [
        {
          "internalType": "uint256",
          "name": "_projectTax",
          "type": "uint256"
        }
      ],
      "stateMutability": "nonpayable",
      "type": "constructor"
    },
    {
      "anonymous": false,
      "inputs": [
        {
          "indexed": false,
          "internalType": "uint256",
          "name": "id",
          "type": "uint256"
        },
        {
          "indexed": false,
          "internalType": "string",
          "name": "actionType",
          "type": "string"
        },
        {
          "indexed": true,
          "internalType": "address",
          "name": "executor",
          "type": "address"
        },
        {
          "indexed": false,
          "internalType": "uint256",
          "name": "timestamp",
          "type": "uint256"
        }
      ],
      "name": "Action",
      "type": "event"
    },
    {
      "inputs": [
        {
          "internalType": "uint256",
          "name": "id",
          "type": "uint256"
        }
      ],
      "name": "backProject",
      "outputs": [
        {
          "internalType": "bool",
          "name": "",
          "type": "bool"
        }
      ],
      "stateMutability": "payable",
      "type": "function"
    },
    {
      "inputs": [],
      "name": "balance",
      "outputs": [
        {
          "internalType": "uint256",
          "name": "",
          "type": "uint256"
        }
      ],
      "stateMutability": "view",
      "type": "function"
    },
    {
      "inputs": [
        {
          "internalType": "uint256",
          "name": "_taxPct",
          "type": "uint256"
        }
      ],
      "name": "changeTax",
      "outputs": [],
      "stateMutability": "nonpayable",
      "type": "function"
    },
    {
      "inputs": [
        {
          "internalType": "string",
          "name": "title",
          "type": "string"
        },
        {
          "internalType": "string",
          "name": "description",
          "type": "string"
        },
        {
          "internalType": "string",
          "name": "imageURL",
          "type": "string"
        },
        {
          "internalType": "uint256",
          "name": "cost",
          "type": "uint256"
        },
        {
          "internalType": "uint256",
          "name": "expiresAt",
          "type": "uint256"
        }
      ],
      "name": "createProject",
      "outputs": [
        {
          "internalType": "bool",
          "name": "",
          "type": "bool"
        }
      ],
      "stateMutability": "nonpayable",
      "type": "function"
    },
    {
      "inputs": [
        {
          "internalType": "uint256",
          "name": "id",
          "type": "uint256"
        }
      ],
      "name": "deleteProject",
      "outputs": [
        {
          "internalType": "bool",
          "name": "",
          "type": "bool"
        }
      ],
      "stateMutability": "nonpayable",
      "type": "function"
    },
    {
      "inputs": [
        {
          "internalType": "uint256",
          "name": "id",
          "type": "uint256"
        }
      ],
      "name": "getBackers",
      "outputs": [
        {
          "components": [
            {
              "internalType": "address",
              "name": "owner",
              "type": "address"
            },
            {
              "internalType": "uint256",
              "name": "contribution",
              "type": "uint256"
            },
            {
              "internalType": "uint256",
              "name": "timestamp",
              "type": "uint256"
            },
            {
              "internalType": "bool",
              "name": "refunded",
              "type": "bool"
            }
          ],
          "internalType": "struct Farmoney.backerStruct[]",
          "name": "",
          "type": "tuple[]"
        }
      ],
      "stateMutability": "view",
      "type": "function"
    },
    {
      "inputs": [
        {
          "internalType": "uint256",
          "name": "id",
          "type": "uint256"
        }
      ],
      "name": "getProject",
      "outputs": [
        {
          "components": [
            {
              "internalType": "uint256",
              "name": "id",
              "type": "uint256"
            },
            {
              "internalType": "address",
              "name": "owner",
              "type": "address"
            },
            {
              "internalType": "string",
              "name": "title",
              "type": "string"
            },
            {
              "internalType": "string",
              "name": "description",
              "type": "string"
            },
            {
              "internalType": "string",
              "name": "imageURL",
              "type": "string"
            },
            {
              "internalType": "uint256",
              "name": "cost",
              "type": "uint256"
            },
            {
              "internalType": "uint256",
              "name": "raised",
              "type": "uint256"
            },
            {
              "internalType": "uint256",
              "name": "timestamp",
              "type": "uint256"
            },
            {
              "internalType": "uint256",
              "name": "expiresAt",
              "type": "uint256"
            },
            {
              "internalType": "uint256",
              "name": "backers",
              "type": "uint256"
            },
            {
              "internalType": "enum Farmoney.statusEnum",
              "name": "status",
              "type": "uint8"
            }
          ],
          "internalType": "struct Farmoney.projectStruct",
          "name": "",
          "type": "tuple"
        }
      ],
      "stateMutability": "view",
      "type": "function"
    },
    {
      "inputs": [],
      "name": "getProjects",
      "outputs": [
        {
          "components": [
            {
              "internalType": "uint256",
              "name": "id",
              "type": "uint256"
            },
            {
              "internalType": "address",
              "name": "owner",
              "type": "address"
            },
            {
              "internalType": "string",
              "name": "title",
              "type": "string"
            },
            {
              "internalType": "string",
              "name": "description",
              "type": "string"
            },
            {
              "internalType": "string",
              "name": "imageURL",
              "type": "string"
            },
            {
              "internalType": "uint256",
              "name": "cost",
              "type": "uint256"
            },
            {
              "internalType": "uint256",
              "name": "raised",
              "type": "uint256"
            },
            {
              "internalType": "uint256",
              "name": "timestamp",
              "type": "uint256"
            },
            {
              "internalType": "uint256",
              "name": "expiresAt",
              "type": "uint256"
            },
            {
              "internalType": "uint256",
              "name": "backers",
              "type": "uint256"
            },
            {
              "internalType": "enum Farmoney.statusEnum",
              "name": "status",
              "type": "uint8"
            }
          ],
          "internalType": "struct Farmoney.projectStruct[]",
          "name": "",
          "type": "tuple[]"
        }
      ],
      "stateMutability": "view",
      "type": "function"
    },
    {
      "inputs": [],
      "name": "owner",
      "outputs": [
        {
          "internalType": "address",
          "name": "",
          "type": "address"
        }
      ],
      "stateMutability": "view",
      "type": "function"
    },
    {
      "inputs": [
        {
          "internalType": "uint256",
          "name": "id",
          "type": "uint256"
        }
      ],
      "name": "payOutProject",
      "outputs": [
        {
          "internalType": "bool",
          "name": "",
          "type": "bool"
        }
      ],
      "stateMutability": "nonpayable",
      "type": "function"
    },
    {
      "inputs": [],
      "name": "projectCount",
      "outputs": [
        {
          "internalType": "uint256",
          "name": "",
          "type": "uint256"
        }
      ],
      "stateMutability": "view",
      "type": "function"
    },
    {
      "inputs": [
        {
          "internalType": "uint256",
          "name": "",
          "type": "uint256"
        }
      ],
      "name": "projectExist",
      "outputs": [
        {
          "internalType": "bool",
          "name": "",
          "type": "bool"
        }
      ],
      "stateMutability": "view",
      "type": "function"
    },
    {
      "inputs": [],
      "name": "projectTax",
      "outputs": [
        {
          "internalType": "uint256",
          "name": "",
          "type": "uint256"
        }
      ],
      "stateMutability": "view",
      "type": "function"
    },
    {
      "inputs": [
        {
          "internalType": "uint256",
          "name": "id",
          "type": "uint256"
        }
      ],
      "name": "requestRefund",
      "outputs": [
        {
          "internalType": "bool",
          "name": "",
          "type": "bool"
        }
      ],
      "stateMutability": "nonpayable",
      "type": "function"
    },
    {
      "inputs": [],
      "name": "stats",
      "outputs": [
        {
          "internalType": "uint256",
          "name": "totalProjects",
          "type": "uint256"
        },
        {
          "internalType": "uint256",
          "name": "totalBacking",
          "type": "uint256"
        },
        {
          "internalType": "uint256",
          "name": "totalDonations",
          "type": "uint256"
        }
      ],
      "stateMutability": "view",
      "type": "function"
    },
    {
      "inputs": [
        {
          "internalType": "uint256",
          "name": "id",
          "type": "uint256"
        },
        {
          "internalType": "string",
          "name": "title",
          "type": "string"
        },
        {
          "internalType": "string",
          "name": "description",
          "type": "string"
        },
        {
          "internalType": "string",
          "name": "imageURL",
          "type": "string"
        },
        {
          "internalType": "uint256",
          "name": "expiresAt",
          "type": "uint256"
        }
      ],
      "name": "updateProject",
      "outputs": [
        {
          "internalType": "bool",
          "name": "",
          "type": "bool"
        }
      ],
      "stateMutability": "nonpayable",
      "type": "function"
    }
  ],
  "bytecode": "60806040523480156200001157600080fd5b50604051620038f6380380620038f68339818101604052810190620000379190620000c5565b336000806101000a81548173ffffffffffffffffffffffffffffffffffffffff021916908373ffffffffffffffffffffffffffffffffffffffff1602179055508060018190555050620000f7565b600080fd5b6000819050919050565b6200009f816200008a565b8114620000ab57600080fd5b50565b600081519050620000bf8162000094565b92915050565b600060208284031215620000de57620000dd62000085565b5b6000620000ee84828501620000ae565b91505092915050565b6137ef80620001076000396000f3fe6080604052600436106100f35760003560e01c8063a4b2409e1161008a578063d24cd3ec11610059578063d24cd3ec1461037d578063d80528ae146103a8578063dcc60128146103d5578063f0f3f2c814610400576100f3565b8063a4b2409e1461029b578063b531dcba146102d8578063b69ef8a814610315578063c9168b7214610340576100f3565b80638593054b116100c65780638593054b146101c65780638da5cb5b146102035780639a3fa8c71461022e5780639f39a1941461026b576100f3565b8063056c29ee146100f857806336fbad26146101355780633e45c8af146101605780634cd0cb2814610189575b600080fd5b34801561010457600080fd5b5061011f600480360381019061011a919061235b565b61043d565b60405161012c9190612445565b60405180910390f35b34801561014157600080fd5b5061014a61091b565b604051610157919061246f565b60405180910390f35b34801561016c57600080fd5b506101876004803603810190610182919061248a565b610921565b005b34801561019557600080fd5b506101b060048036038101906101ab919061248a565b6109b9565b6040516101bd9190612445565b60405180910390f35b3480156101d257600080fd5b506101ed60048036038101906101e8919061248a565b610bb6565b6040516101fa9190612445565b60405180910390f35b34801561020f57600080fd5b50610218610bd6565b60405161022591906124f8565b60405180910390f35b34801561023a57600080fd5b5061025560048036038101906102509190612513565b610bfa565b6040516102629190612445565b60405180910390f35b6102856004803603810190610280919061248a565b610e9b565b6040516102929190612445565b60405180910390f35b3480156102a757600080fd5b506102c260048036038101906102bd919061248a565b611352565b6040516102cf9190612445565b60405180910390f35b3480156102e457600080fd5b506102ff60048036038101906102fa919061248a565b6114b0565b60405161030c9190612445565b60405180910390f35b34801561032157600080fd5b5061032a611666565b604051610337919061246f565b60405180910390f35b34801561034c57600080fd5b506103676004803603810190610362919061248a565b61166c565b6040516103749190612713565b60405180910390f35b34801561038957600080fd5b50610392611763565b60405161039f919061246f565b60405180910390f35b3480156103b457600080fd5b506103bd611769565b6040516103cc93929190612735565b60405180910390f35b3480156103e157600080fd5b506103ea611781565b6040516103f79190612a21565b60405180910390f35b34801561040c57600080fd5b506104276004803603810190610422919061248a565b611a64565b6040516104349190612b40565b60405180910390f35b600080865111610482576040517f08c379a000000000000000000000000000000000000000000000000000000000815260040161047990612bbf565b60405180910390fd5b60008551116104c6576040517f08c379a00000000000000000000000000000000000000000000000000000000081526004016104bd90612c2b565b60405180910390fd5b600084511161050a576040517f08c379a000000000000000000000000000000000000000000000000000000000815260040161050190612c97565b60405180910390fd5b6000831161054d576040517f08c379a000000000000000000000000000000000000000000000000000000000815260040161054490612d03565b60405180910390fd5b610555612149565b60025481600001818152505033816020019073ffffffffffffffffffffffffffffffffffffffff16908173ffffffffffffffffffffffffffffffffffffffff1681525050868160400181905250858160600181905250848160800181905250838160a0018181525050428160e0018181525050828161010001818152505060078190806001815401808255809150506001900390600052602060002090600b02016000909190919091506000820151816000015560208201518160010160006101000a81548173ffffffffffffffffffffffffffffffffffffffff021916908373ffffffffffffffffffffffffffffffffffffffff16021790555060408201518160020190816106659190612f2f565b50606082015181600301908161067b9190612f2f565b5060808201518160040190816106919190612f2f565b5060a0820151816005015560c0820151816006015560e082015181600701556101008201518160080155610120820151816009015561014082015181600a0160006101000a81548160ff021916908360048111156106f2576106f1612817565b5b021790555050506001600a6000600254815260200190815260200160002060006101000a81548160ff021916908315150217905550600860003373ffffffffffffffffffffffffffffffffffffffff1673ffffffffffffffffffffffffffffffffffffffff1681526020019081526020016000208190806001815401808255809150506001900390600052602060002090600b02016000909190919091506000820151816000015560208201518160010160006101000a81548173ffffffffffffffffffffffffffffffffffffffff021916908373ffffffffffffffffffffffffffffffffffffffff16021790555060408201518160020190816107f69190612f2f565b50606082015181600301908161080c9190612f2f565b5060808201518160040190816108229190612f2f565b5060a0820151816005015560c0820151816006015560e082015181600701556101008201518160080155610120820151816009015561014082015181600a0160006101000a81548160ff0219169083600481111561088357610882612817565b5b021790555050506001600460000160008282546108a09190613030565b925050819055503373ffffffffffffffffffffffffffffffffffffffff167faee8e5d3bbb2f71a951b5632cee20f7ac487b9f8ab4f66a236f7694b13af7c6a600260008154809291906108f290613064565b91905055426040516109059291906130f8565b60405180910390a2600191505095945050505050565b60025481565b60008054906101000a900473ffffffffffffffffffffffffffffffffffffffff1673ffffffffffffffffffffffffffffffffffffffff163373ffffffffffffffffffffffffffffffffffffffff16146109af576040517f08c379a00000000000000000000000000000000000000000000000000000000081526004016109a690613180565b60405180910390fd5b8060018190555050565b60008060048111156109ce576109cd612817565b5b600783815481106109e2576109e16131a0565b5b90600052602060002090600b0201600a0160009054906101000a900460ff166004811115610a1357610a12612817565b5b14610a53576040517f08c379a0000000000000000000000000000000000000000000000000000000008152600401610a4a9061321b565b60405180910390fd5b60078281548110610a6757610a666131a0565b5b90600052602060002090600b020160010160009054906101000a900473ffffffffffffffffffffffffffffffffffffffff1673ffffffffffffffffffffffffffffffffffffffff163373ffffffffffffffffffffffffffffffffffffffff1614610b06576040517f08c379a0000000000000000000000000000000000000000000000000000000008152600401610afd90613287565b60405180910390fd5b600360078381548110610b1c57610b1b6131a0565b5b90600052602060002090600b0201600a0160006101000a81548160ff02191690836004811115610b4f57610b4e612817565b5b0217905550610b5d82611d84565b3373ffffffffffffffffffffffffffffffffffffffff167faee8e5d3bbb2f71a951b5632cee20f7ac487b9f8ab4f66a236f7694b13af7c6a8342604051610ba59291906132f3565b60405180910390a260019050919050565b600a6020528060005260406000206000915054906101000a900460ff1681565b60008054906101000a900473ffffffffffffffffffffffffffffffffffffffff1681565b600060078681548110610c1057610c0f6131a0565b5b90600052602060002090600b020160010160009054906101000a900473ffffffffffffffffffffffffffffffffffffffff1673ffffffffffffffffffffffffffffffffffffffff163373ffffffffffffffffffffffffffffffffffffffff1614610caf576040517f08c379a0000000000000000000000000000000000000000000000000000000008152600401610ca690613287565b60405180910390fd5b6000855111610cf3576040517f08c379a0000000000000000000000000000000000000000000000000000000008152600401610cea90612bbf565b60405180910390fd5b6000845111610d37576040517f08c379a0000000000000000000000000000000000000000000000000000000008152600401610d2e90612c2b565b60405180910390fd5b6000835111610d7b576040517f08c379a0000000000000000000000000000000000000000000000000000000008152600401610d7290612c97565b60405180910390fd5b8460078781548110610d9057610d8f6131a0565b5b90600052602060002090600b02016002019081610dad9190612f2f565b508360078781548110610dc357610dc26131a0565b5b90600052602060002090600b02016003019081610de09190612f2f565b508260078781548110610df657610df56131a0565b5b90600052602060002090600b02016004019081610e139190612f2f565b508160078781548110610e2957610e286131a0565b5b90600052602060002090600b0201600801819055503373ffffffffffffffffffffffffffffffffffffffff167faee8e5d3bbb2f71a951b5632cee20f7ac487b9f8ab4f66a236f7694b13af7c6a8742604051610e8692919061337b565b60405180910390a26001905095945050505050565b6000803411610edf576040517f08c379a0000000000000000000000000000000000000000000000000000000008152600401610ed690613403565b60405180910390fd5b600a600083815260200190815260200160002060009054906101000a900460ff16610f3f576040517f08c379a0000000000000000000000000000000000000000000000000000000008152600401610f369061346f565b60405180910390fd5b60006004811115610f5357610f52612817565b5b60078381548110610f6757610f666131a0565b5b90600052602060002090600b0201600a0160009054906101000a900460ff166004811115610f9857610f97612817565b5b14610fd8576040517f08c379a0000000000000000000000000000000000000000000000000000000008152600401610fcf9061321b565b60405180910390fd5b600160046001016000828254610fee9190613030565b92505081905550346004600201600082825461100a9190613030565b925050819055503460078381548110611026576110256131a0565b5b90600052602060002090600b020160060160008282546110469190613030565b92505081905550600160078381548110611063576110626131a0565b5b90600052602060002090600b020160090160008282546110839190613030565b925050819055506009600083815260200190815260200160002060405180608001604052803373ffffffffffffffffffffffffffffffffffffffff16815260200134815260200142815260200160001515815250908060018154018082558091505060019003906000526020600020906004020160009091909190915060008201518160000160006101000a81548173ffffffffffffffffffffffffffffffffffffffff021916908373ffffffffffffffffffffffffffffffffffffffff160217905550602082015181600101556040820151816002015560608201518160030160006101000a81548160ff02191690831515021790555050503373ffffffffffffffffffffffffffffffffffffffff167faee8e5d3bbb2f71a951b5632cee20f7ac487b9f8ab4f66a236f7694b13af7c6a83426040516111c59291906134db565b60405180910390a2600782815481106111e1576111e06131a0565b5b90600052602060002090600b02016005015460078381548110611207576112066131a0565b5b90600052602060002090600b020160060154106112bc57600160078381548110611234576112336131a0565b5b90600052602060002090600b0201600a0160006101000a81548160ff0219169083600481111561126757611266612817565b5b0217905550600782815481106112805761127f6131a0565b5b90600052602060002090600b020160060154600360008282546112a39190613030565b925050819055506112b382611f21565b6001905061134d565b600782815481106112d0576112cf6131a0565b5b90600052602060002090600b0201600801544210611348576002600783815481106112fe576112fd6131a0565b5b90600052602060002090600b0201600a0160006101000a81548160ff0219169083600481111561133157611330612817565b5b021790555061133f82611d84565b6001905061134d565b600190505b919050565b60006002600481111561136857611367612817565b5b6007838154811061137c5761137b6131a0565b5b90600052602060002090600b0201600a0160009054906101000a900460ff1660048111156113ad576113ac612817565b5b1415806114115750600360048111156113c9576113c8612817565b5b600783815481106113dd576113dc6131a0565b5b90600052602060002090600b0201600a0160009054906101000a900460ff16600481111561140e5761140d612817565b5b14155b611450576040517f08c379a000000000000000000000000000000000000000000000000000000000815260040161144790613589565b60405180910390fd5b600260078381548110611466576114656131a0565b5b90600052602060002090600b0201600a0160006101000a81548160ff0219169083600481111561149957611498612817565b5b02179055506114a782611d84565b60019050919050565b6000600160048111156114c6576114c5612817565b5b600783815481106114da576114d96131a0565b5b90600052602060002090600b0201600a0160009054906101000a900460ff16600481111561150b5761150a612817565b5b1461154b576040517f08c379a0000000000000000000000000000000000000000000000000000000008152600401611542906135f5565b60405180910390fd5b6007828154811061155f5761155e6131a0565b5b90600052602060002090600b020160010160009054906101000a900473ffffffffffffffffffffffffffffffffffffffff1673ffffffffffffffffffffffffffffffffffffffff163373ffffffffffffffffffffffffffffffffffffffff161480611615575060008054906101000a900473ffffffffffffffffffffffffffffffffffffffff1673ffffffffffffffffffffffffffffffffffffffff163373ffffffffffffffffffffffffffffffffffffffff16145b611654576040517f08c379a000000000000000000000000000000000000000000000000000000000815260040161164b90613287565b60405180910390fd5b61165d82611f21565b60019050919050565b60035481565b606060096000838152602001908152602001600020805480602002602001604051908101604052809291908181526020016000905b8282101561175857838290600052602060002090600402016040518060800160405290816000820160009054906101000a900473ffffffffffffffffffffffffffffffffffffffff1673ffffffffffffffffffffffffffffffffffffffff1673ffffffffffffffffffffffffffffffffffffffff16815260200160018201548152602001600282015481526020016003820160009054906101000a900460ff161515151581525050815260200190600101906116a1565b505050509050919050565b60015481565b60048060000154908060010154908060020154905083565b60606007805480602002602001604051908101604052809291908181526020016000905b82821015611a5b57838290600052602060002090600b020160405180610160016040529081600082015481526020016001820160009054906101000a900473ffffffffffffffffffffffffffffffffffffffff1673ffffffffffffffffffffffffffffffffffffffff1673ffffffffffffffffffffffffffffffffffffffff16815260200160028201805461183990612d52565b80601f016020809104026020016040519081016040528092919081815260200182805461186590612d52565b80156118b25780601f10611887576101008083540402835291602001916118b2565b820191906000526020600020905b81548152906001019060200180831161189557829003601f168201915b505050505081526020016003820180546118cb90612d52565b80601f01602080910402602001604051908101604052809291908181526020018280546118f790612d52565b80156119445780601f1061191957610100808354040283529160200191611944565b820191906000526020600020905b81548152906001019060200180831161192757829003601f168201915b5050505050815260200160048201805461195d90612d52565b80601f016020809104026020016040519081016040528092919081815260200182805461198990612d52565b80156119d65780601f106119ab576101008083540402835291602001916119d6565b820191906000526020600020905b8154815290600101906020018083116119b957829003601f168201915b505050505081526020016005820154815260200160068201548152602001600782015481526020016008820154815260200160098201548152602001600a820160009054906101000a900460ff166004811115611a3657611a35612817565b5b6004811115611a4857611a47612817565b5b81525050815260200190600101906117a5565b50505050905090565b611a6c612149565b600a600083815260200190815260200160002060009054906101000a900460ff16611acc576040517f08c379a0000000000000000000000000000000000000000000000000000000008152600401611ac39061346f565b60405180910390fd5b60078281548110611ae057611adf6131a0565b5b90600052602060002090600b020160405180610160016040529081600082015481526020016001820160009054906101000a900473ffffffffffffffffffffffffffffffffffffffff1673ffffffffffffffffffffffffffffffffffffffff1673ffffffffffffffffffffffffffffffffffffffff168152602001600282018054611b6a90612d52565b80601f0160208091040260200160405190810160405280929190818152602001828054611b9690612d52565b8015611be35780601f10611bb857610100808354040283529160200191611be3565b820191906000526020600020905b815481529060010190602001808311611bc657829003601f168201915b50505050508152602001600382018054611bfc90612d52565b80601f0160208091040260200160405190810160405280929190818152602001828054611c2890612d52565b8015611c755780601f10611c4a57610100808354040283529160200191611c75565b820191906000526020600020905b815481529060010190602001808311611c5857829003601f168201915b50505050508152602001600482018054611c8e90612d52565b80601f0160208091040260200160405190810160405280929190818152602001828054611cba90612d52565b8015611d075780601f10611cdc57610100808354040283529160200191611d07565b820191906000526020600020905b815481529060010190602001808311611cea57829003601f168201915b505050505081526020016005820154815260200160068201548152602001600782015481526020016008820154815260200160098201548152602001600a820160009054906101000a900460ff166004811115611d6757611d66612817565b5b6004811115611d7957611d78612817565b5b815250509050919050565b60005b6009600083815260200190815260200160002080549050811015611f1d576000600960008481526020019081526020016000208281548110611dcc57611dcb6131a0565b5b906000526020600020906004020160000160009054906101000a900473ffffffffffffffffffffffffffffffffffffffff1690506000600960008581526020019081526020016000208381548110611e2757611e266131a0565b5b90600052602060002090600402016001015490506001600960008681526020019081526020016000208481548110611e6257611e616131a0565b5b906000526020600020906004020160030160006101000a81548160ff02191690831515021790555042600960008681526020019081526020016000208481548110611eb057611eaf6131a0565b5b906000526020600020906004020160020181905550611ecf82826120ce565b600160046001016000828254611ee59190613615565b925050819055508060046002016000828254611f019190613615565b9250508190555050508080611f1590613064565b915050611d87565b5050565b600060078281548110611f3757611f366131a0565b5b90600052602060002090600b02016006015490506000606460015483611f5d9190613649565b611f6791906136ba565b9050600460078481548110611f7f57611f7e6131a0565b5b90600052602060002090600b0201600a0160006101000a81548160ff02191690836004811115611fb257611fb1612817565b5b021790555061201160078481548110611fce57611fcd6131a0565b5b90600052602060002090600b020160010160009054906101000a900473ffffffffffffffffffffffffffffffffffffffff16828461200c9190613615565b6120ce565b61203b60008054906101000a900473ffffffffffffffffffffffffffffffffffffffff16826120ce565b6007838154811061204f5761204e6131a0565b5b90600052602060002090600b020160060154600360008282546120729190613615565b925050819055503373ffffffffffffffffffffffffffffffffffffffff167faee8e5d3bbb2f71a951b5632cee20f7ac487b9f8ab4f66a236f7694b13af7c6a84426040516120c1929190613737565b60405180910390a2505050565b60008273ffffffffffffffffffffffffffffffffffffffff16826040516120f4906137a4565b60006040518083038185875af1925050503d8060008114612131576040519150601f19603f3d011682016040523d82523d6000602084013e612136565b606091505b505090508061214457600080fd5b505050565b60405180610160016040528060008152602001600073ffffffffffffffffffffffffffffffffffffffff1681526020016060815260200160608152602001606081526020016000815260200160008152602001600081526020016000815260200160008152602001600060048111156121c5576121c4612817565b5b81525090565b6000604051905090565b600080fd5b600080fd5b600080fd5b600080fd5b6000601f19601f8301169050919050565b7f4e487b7100000000000000000000000000000000000000000000000000000000600052604160045260246000fd5b612232826121e9565b810181811067ffffffffffffffff82111715612251576122506121fa565b5b80604052505050565b60006122646121cb565b90506122708282612229565b919050565b600067ffffffffffffffff8211156122905761228f6121fa565b5b612299826121e9565b9050602081019050919050565b82818337600083830152505050565b60006122c86122c384612275565b61225a565b9050828152602081018484840111156122e4576122e36121e4565b5b6122ef8482856122a6565b509392505050565b600082601f83011261230c5761230b6121df565b5b813561231c8482602086016122b5565b91505092915050565b6000819050919050565b61233881612325565b811461234357600080fd5b50565b6000813590506123558161232f565b92915050565b600080600080600060a08688031215612377576123766121d5565b5b600086013567ffffffffffffffff811115612395576123946121da565b5b6123a1888289016122f7565b955050602086013567ffffffffffffffff8111156123c2576123c16121da565b5b6123ce888289016122f7565b945050604086013567ffffffffffffffff8111156123ef576123ee6121da565b5b6123fb888289016122f7565b935050606061240c88828901612346565b925050608061241d88828901612346565b9150509295509295909350565b60008115159050919050565b61243f8161242a565b82525050565b600060208201905061245a6000830184612436565b92915050565b61246981612325565b82525050565b60006020820190506124846000830184612460565b92915050565b6000602082840312156124a05761249f6121d5565b5b60006124ae84828501612346565b91505092915050565b600073ffffffffffffffffffffffffffffffffffffffff82169050919050565b60006124e2826124b7565b9050919050565b6124f2816124d7565b82525050565b600060208201905061250d60008301846124e9565b92915050565b600080600080600060a0868803121561252f5761252e6121d5565b5b600061253d88828901612346565b955050602086013567ffffffffffffffff81111561255e5761255d6121da565b5b61256a888289016122f7565b945050604086013567ffffffffffffffff81111561258b5761258a6121da565b5b612597888289016122f7565b935050606086013567ffffffffffffffff8111156125b8576125b76121da565b5b6125c4888289016122f7565b92505060806125d588828901612346565b9150509295509295909350565b600081519050919050565b600082825260208201905092915050565b6000819050602082019050919050565b612617816124d7565b82525050565b61262681612325565b82525050565b6126358161242a565b82525050565b608082016000820151612651600085018261260e565b506020820151612664602085018261261d565b506040820151612677604085018261261d565b50606082015161268a606085018261262c565b50505050565b600061269c838361263b565b60808301905092915050565b6000602082019050919050565b60006126c0826125e2565b6126ca81856125ed565b93506126d5836125fe565b8060005b838110156127065781516126ed8882612690565b97506126f8836126a8565b9250506001810190506126d9565b5085935050505092915050565b6000602082019050818103600083015261272d81846126b5565b905092915050565b600060608201905061274a6000830186612460565b6127576020830185612460565b6127646040830184612460565b949350505050565b600081519050919050565b600082825260208201905092915050565b6000819050602082019050919050565b600081519050919050565b600082825260208201905092915050565b60005b838110156127d25780820151818401526020810190506127b7565b60008484015250505050565b60006127e982612798565b6127f381856127a3565b93506128038185602086016127b4565b61280c816121e9565b840191505092915050565b7f4e487b7100000000000000000000000000000000000000000000000000000000600052602160045260246000fd5b6005811061285757612856612817565b5b50565b600081905061286882612846565b919050565b60006128788261285a565b9050919050565b6128888161286d565b82525050565b6000610160830160008301516128a7600086018261261d565b5060208301516128ba602086018261260e565b50604083015184820360408601526128d282826127de565b915050606083015184820360608601526128ec82826127de565b9150506080830151848203608086015261290682826127de565b91505060a083015161291b60a086018261261d565b5060c083015161292e60c086018261261d565b5060e083015161294160e086018261261d565b5061010083015161295661010086018261261d565b5061012083015161296b61012086018261261d565b5061014083015161298061014086018261287f565b508091505092915050565b6000612997838361288e565b905092915050565b6000602082019050919050565b60006129b78261276c565b6129c18185612777565b9350836020820285016129d385612788565b8060005b85811015612a0f57848403895281516129f0858261298b565b94506129fb8361299f565b925060208a019950506001810190506129d7565b50829750879550505050505092915050565b60006020820190508181036000830152612a3b81846129ac565b905092915050565b600061016083016000830151612a5c600086018261261d565b506020830151612a6f602086018261260e565b5060408301518482036040860152612a8782826127de565b91505060608301518482036060860152612aa182826127de565b91505060808301518482036080860152612abb82826127de565b91505060a0830151612ad060a086018261261d565b5060c0830151612ae360c086018261261d565b5060e0830151612af660e086018261261d565b50610100830151612b0b61010086018261261d565b50610120830151612b2061012086018261261d565b50610140830151612b3561014086018261287f565b508091505092915050565b60006020820190508181036000830152612b5a8184612a43565b905092915050565b600082825260208201905092915050565b7f5469746c652063616e6e6f7420626520656d7074790000000000000000000000600082015250565b6000612ba9601583612b62565b9150612bb482612b73565b602082019050919050565b60006020820190508181036000830152612bd881612b9c565b9050919050565b7f4465736372697074696f6e2063616e6e6f7420626520656d7074790000000000600082015250565b6000612c15601b83612b62565b9150612c2082612bdf565b602082019050919050565b60006020820190508181036000830152612c4481612c08565b9050919050565b7f496d61676555524c2063616e6e6f7420626520656d7074790000000000000000600082015250565b6000612c81601883612b62565b9150612c8c82612c4b565b602082019050919050565b60006020820190508181036000830152612cb081612c74565b9050919050565b7f436f73742063616e6e6f74206265207a65726f00000000000000000000000000600082015250565b6000612ced601383612b62565b9150612cf882612cb7565b602082019050919050565b60006020820190508181036000830152612d1c81612ce0565b9050919050565b7f4e487b7100000000000000000000000000000000000000000000000000000000600052602260045260246000fd5b60006002820490506001821680612d6a57607f821691505b602082108103612d7d57612d7c612d23565b5b50919050565b60008190508160005260206000209050919050565b60006020601f8301049050919050565b600082821b905092915050565b600060088302612de57fffffffffffffffffffffffffffffffffffffffffffffffffffffffffffffffff82612da8565b612def8683612da8565b95508019841693508086168417925050509392505050565b6000819050919050565b6000612e2c612e27612e2284612325565b612e07565b612325565b9050919050565b6000819050919050565b612e4683612e11565b612e5a612e5282612e33565b848454612db5565b825550505050565b600090565b612e6f612e62565b612e7a818484612e3d565b505050565b5b81811015612e9e57612e93600082612e67565b600181019050612e80565b5050565b601f821115612ee357612eb481612d83565b612ebd84612d98565b81016020851015612ecc578190505b612ee0612ed885612d98565b830182612e7f565b50505b505050565b600082821c905092915050565b6000612f0660001984600802612ee8565b1980831691505092915050565b6000612f1f8383612ef5565b9150826002028217905092915050565b612f3882612798565b67ffffffffffffffff811115612f5157612f506121fa565b5b612f5b8254612d52565b612f66828285612ea2565b600060209050601f831160018114612f995760008415612f87578287015190505b612f918582612f13565b865550612ff9565b601f198416612fa786612d83565b60005b82811015612fcf57848901518255600182019150602085019450602081019050612faa565b86831015612fec5784890151612fe8601f891682612ef5565b8355505b6001600288020188555050505b505050505050565b7f4e487b7100000000000000000000000000000000000000000000000000000000600052601160045260246000fd5b600061303b82612325565b915061304683612325565b925082820190508082111561305e5761305d613001565b5b92915050565b600061306f82612325565b91507fffffffffffffffffffffffffffffffffffffffffffffffffffffffffffffffff82036130a1576130a0613001565b5b600182019050919050565b7f50524f4a45435420435245415445440000000000000000000000000000000000600082015250565b60006130e2600f83612b62565b91506130ed826130ac565b602082019050919050565b600060608201905061310d6000830185612460565b818103602083015261311e816130d5565b905061312d6040830184612460565b9392505050565b7f4f776e6572207265736572766564206f6e6c7900000000000000000000000000600082015250565b600061316a601383612b62565b915061317582613134565b602082019050919050565b600060208201905081810360008301526131998161315d565b9050919050565b7f4e487b7100000000000000000000000000000000000000000000000000000000600052603260045260246000fd5b7f50726f6a656374206e6f206c6f6e676572206f70656e65640000000000000000600082015250565b6000613205601883612b62565b9150613210826131cf565b602082019050919050565b60006020820190508181036000830152613234816131f8565b9050919050565b7f556e617574686f72697a656420456e7469747900000000000000000000000000600082015250565b6000613271601383612b62565b915061327c8261323b565b602082019050919050565b600060208201905081810360008301526132a081613264565b9050919050565b7f50524f4a4543542044454c455445440000000000000000000000000000000000600082015250565b60006132dd600f83612b62565b91506132e8826132a7565b602082019050919050565b60006060820190506133086000830185612460565b8181036020830152613319816132d0565b90506133286040830184612460565b9392505050565b7f50524f4a45435420555044415445440000000000000000000000000000000000600082015250565b6000613365600f83612b62565b91506133708261332f565b602082019050919050565b60006060820190506133906000830185612460565b81810360208301526133a181613358565b90506133b06040830184612460565b9392505050565b7f4574686572206d7573742062652067726561746572207468616e207a65726f00600082015250565b60006133ed601f83612b62565b91506133f8826133b7565b602082019050919050565b6000602082019050818103600083015261341c816133e0565b9050919050565b7f50726f6a656374206e6f7420666f756e64000000000000000000000000000000600082015250565b6000613459601183612b62565b915061346482613423565b602082019050919050565b600060208201905081810360008301526134888161344c565b9050919050565b7f50524f4a454354204241434b4544000000000000000000000000000000000000600082015250565b60006134c5600e83612b62565b91506134d08261348f565b602082019050919050565b60006060820190506134f06000830185612460565b8181036020830152613501816134b8565b90506135106040830184612460565b9392505050565b7f50726f6a656374206e6f74206d61726b656420617320726576657274206f722060008201527f64656c6574650000000000000000000000000000000000000000000000000000602082015250565b6000613573602683612b62565b915061357e82613517565b604082019050919050565b600060208201905081810360008301526135a281613566565b9050919050565b7f50726f6a656374206e6f7420415050524f564544000000000000000000000000600082015250565b60006135df601483612b62565b91506135ea826135a9565b602082019050919050565b6000602082019050818103600083015261360e816135d2565b9050919050565b600061362082612325565b915061362b83612325565b925082820390508181111561364357613642613001565b5b92915050565b600061365482612325565b915061365f83612325565b925082820261366d81612325565b9150828204841483151761368457613683613001565b5b5092915050565b7f4e487b7100000000000000000000000000000000000000000000000000000000600052601260045260246000fd5b60006136c582612325565b91506136d083612325565b9250826136e0576136df61368b565b5b828204905092915050565b7f50524f4a4543542050414944204f555400000000000000000000000000000000600082015250565b6000613721601083612b62565b915061372c826136eb565b602082019050919050565b600060608201905061374c6000830185612460565b818103602083015261375d81613714565b905061376c6040830184612460565b9392505050565b600081905092915050565b50565b600061378e600083613773565b91506137998261377e565b600082019050919050565b60006137af82613781565b915081905091905056fea2646970667358221220d6954e3e982866969170b3d4f5d39341d93e0f9c4032db0ce00086ad347b016764736f6c63430008120033",
  "deployedBytecode": "0x6080604052600436106100f35760003560e01c8063a4b2409e1161008a578063d24cd3ec11610059578063d24cd3ec146102b1578063d80528ae146102c7578063dcc6012814610301578063f0f3f2c81461032357600080fd5b8063a4b2409e1461022e578063b531dcba1461024e578063b69ef8a81461026e578063c9168b721461028457600080fd5b80638593054b116100c65780638593054b146101935780638da5cb5b146101c35780639a3fa8c7146101fb5780639f39a1941461021b57600080fd5b8063056c29ee146100f857806336fbad261461012d5780633e45c8af146101515780634cd0cb2814610173575b600080fd5b34801561010457600080fd5b50610118610113366004611d0a565b610350565b60405190151581526020015b60405180910390f35b34801561013957600080fd5b5061014360025481565b604051908152602001610124565b34801561015d57600080fd5b5061017161016c366004611da4565b6107b9565b005b34801561017f57600080fd5b5061011861018e366004611da4565b61080e565b34801561019f57600080fd5b506101186101ae366004611da4565b600a6020526000908152604090205460ff1681565b3480156101cf57600080fd5b506000546101e3906001600160a01b031681565b6040516001600160a01b039091168152602001610124565b34801561020757600080fd5b50610118610216366004611dbd565b61098a565b610118610229366004611da4565b610c01565b34801561023a57600080fd5b50610118610249366004611da4565b61100e565b34801561025a57600080fd5b50610118610269366004611da4565b611105565b34801561027a57600080fd5b5061014360035481565b34801561029057600080fd5b506102a461029f366004611da4565b6111f4565b6040516101249190611e57565b3480156102bd57600080fd5b5061014360015481565b3480156102d357600080fd5b506004546005546006546102e692919083565b60408051938452602084019290925290820152606001610124565b34801561030d57600080fd5b50610316611296565b6040516101249190612010565b34801561032f57600080fd5b5061034361033e366004611da4565b611531565b6040516101249190612072565b60008086511161039f5760405162461bcd60e51b81526020600482015260156024820152745469746c652063616e6e6f7420626520656d70747960581b60448201526064015b60405180910390fd5b60008551116103f05760405162461bcd60e51b815260206004820152601b60248201527f4465736372697074696f6e2063616e6e6f7420626520656d70747900000000006044820152606401610396565b600084511161043c5760405162461bcd60e51b8152602060048201526018602482015277496d61676555524c2063616e6e6f7420626520656d70747960401b6044820152606401610396565b600083116104825760405162461bcd60e51b8152602060048201526013602482015272436f73742063616e6e6f74206265207a65726f60681b6044820152606401610396565b61048a611b5b565b600254815233602080830191825260408301898152606084018990526080840188905260a084018790524260e085015261010084018690526007805460018101825560009190915284517fa66cc928b5edb82af9bd49922954155ab7b0942694bea4ce44661d9a8736c688600b90920291820190815593517fa66cc928b5edb82af9bd49922954155ab7b0942694bea4ce44661d9a8736c689820180546001600160a01b0319166001600160a01b0390921691909117905590518051859493610577937fa66cc928b5edb82af9bd49922954155ab7b0942694bea4ce44661d9a8736c68a01920190611bce565b5060608201518051610593916003840191602090910190611bce565b50608082015180516105af916004840191602090910190611bce565b5060a0820151600582015560c0820151600682015560e0820151600782015561010082015160088201556101208201516009820155610140820151600a8201805460ff1916600183600481111561060857610608611f13565b021790555050600280546000908152600a602090815260408083208054600160ff1990911681179091553384526008835281842080548083018255908552938390208751600b909502019384558683015190840180546001600160a01b0319166001600160a01b039092169190911790558501518051869550929361069593908501929190910190611bce565b50606082015180516106b1916003840191602090910190611bce565b50608082015180516106cd916004840191602090910190611bce565b5060a0820151600582015560c0820151600682015560e0820151600782015561010082015160088201556101208201516009820155610140820151600a8201805460ff1916600183600481111561072657610726611f13565b0217905550505060016004600001600082825461074391906120a2565b90915550506002805433916000805160206121ac8339815191529190600061076a836120ba565b9091555060408051918252606060208301819052600f908301526e141493d29150d50810d49150551151608a1b6080830152429082015260a00160405180910390a25060019695505050505050565b6000546001600160a01b031633146108095760405162461bcd60e51b81526020600482015260136024820152724f776e6572207265736572766564206f6e6c7960681b6044820152606401610396565b600155565b60008060078381548110610824576108246120d5565b60009182526020909120600a600b90920201015460ff16600481111561084c5761084c611f13565b146108945760405162461bcd60e51b8152602060048201526018602482015277141c9bda9958dd081b9bc81b1bdb99d95c881bdc195b995960421b6044820152606401610396565b600782815481106108a7576108a76120d5565b60009182526020909120600b90910201600101546001600160a01b031633146108e25760405162461bcd60e51b8152600401610396906120eb565b6003600783815481106108f7576108f76120d5565b60009182526020909120600a600b9092020101805460ff1916600183600481111561092457610924611f13565b021790555061093282611811565b60408051838152606060208201819052600f908201526e141493d29150d50811115311551151608a1b60808201524281830152905133916000805160206121ac833981519152919081900360a00190a2506001919050565b60006007868154811061099f5761099f6120d5565b60009182526020909120600b90910201600101546001600160a01b031633146109da5760405162461bcd60e51b8152600401610396906120eb565b6000855111610a235760405162461bcd60e51b81526020600482015260156024820152745469746c652063616e6e6f7420626520656d70747960581b6044820152606401610396565b6000845111610a745760405162461bcd60e51b815260206004820152601b60248201527f4465736372697074696f6e2063616e6e6f7420626520656d70747900000000006044820152606401610396565b6000835111610ac05760405162461bcd60e51b8152602060048201526018602482015277496d61676555524c2063616e6e6f7420626520656d70747960401b6044820152606401610396565b8460078781548110610ad457610ad46120d5565b90600052602060002090600b02016002019080519060200190610af8929190611bce565b508360078781548110610b0d57610b0d6120d5565b90600052602060002090600b02016003019080519060200190610b31929190611bce565b508260078781548110610b4657610b466120d5565b90600052602060002090600b02016004019080519060200190610b6a929190611bce565b508160078781548110610b7f57610b7f6120d5565b90600052602060002090600b020160080181905550336001600160a01b03166000805160206121ac8339815191528742604051610bed929190918252606060208301819052600f908301526e141493d29150d50815541110551151608a1b6080830152604082015260a00190565b60405180910390a250600195945050505050565b6000803411610c525760405162461bcd60e51b815260206004820152601f60248201527f4574686572206d7573742062652067726561746572207468616e207a65726f006044820152606401610396565b6000828152600a602052604090205460ff16610ca45760405162461bcd60e51b8152602060048201526011602482015270141c9bda9958dd081b9bdd08199bdd5b99607a1b6044820152606401610396565b600060078381548110610cb957610cb96120d5565b60009182526020909120600a600b90920201015460ff166004811115610ce157610ce1611f13565b14610d295760405162461bcd60e51b8152602060048201526018602482015277141c9bda9958dd081b9bc81b1bdb99d95c881bdc195b995960421b6044820152606401610396565b600160046001016000828254610d3f91906120a2565b909155505060068054349190600090610d599084906120a2565b925050819055503460078381548110610d7457610d746120d5565b90600052602060002090600b02016006016000828254610d9491906120a2565b92505081905550600160078381548110610db057610db06120d5565b90600052602060002090600b02016009016000828254610dd091906120a2565b9091555050600082815260096020908152604080832081516080808201845233808352348387019081524284870181815260608087018b8152885460018082018b55998d529b8b902097516004909c0290970180546001600160a01b0319166001600160a01b03909c169b909b178b559251968a01969096559451600289015592516003909701805460ff1916971515979097179096558351888152948501829052600e918501919091526d141493d29150d508109050d2d15160921b90840152908201526000805160206121ac8339815191529060a00160405180910390a260078281548110610ec357610ec36120d5565b90600052602060002090600b02016005015460078381548110610ee857610ee86120d5565b90600052602060002090600b02016006015410610f9357600160078381548110610f1457610f146120d5565b60009182526020909120600a600b9092020101805460ff19166001836004811115610f4157610f41611f13565b021790555060078281548110610f5957610f596120d5565b90600052602060002090600b02016006015460036000828254610f7c91906120a2565b90915550610f8b90508261197f565b506001919050565b60078281548110610fa657610fa66120d5565b90600052602060002090600b0201600801544210610f8b57600260078381548110610fd357610fd36120d5565b60009182526020909120600a600b9092020101805460ff1916600183600481111561100057611000611f13565b0217905550610f8b82611811565b6000600260078381548110611025576110256120d5565b60009182526020909120600a600b90920201015460ff16600481111561104d5761104d611f13565b141580611095575060036007838154811061106a5761106a6120d5565b60009182526020909120600a600b90920201015460ff16600481111561109257611092611f13565b14155b6110f05760405162461bcd60e51b815260206004820152602660248201527f50726f6a656374206e6f74206d61726b656420617320726576657274206f722060448201526564656c65746560d01b6064820152608401610396565b600260078381548110610fd357610fd36120d5565b600060016007838154811061111c5761111c6120d5565b60009182526020909120600a600b90920201015460ff16600481111561114457611144611f13565b146111885760405162461bcd60e51b8152602060048201526014602482015273141c9bda9958dd081b9bdd081054141493d5915160621b6044820152606401610396565b6007828154811061119b5761119b6120d5565b60009182526020909120600b90910201600101546001600160a01b03163314806111cf57506000546001600160a01b031633145b6111eb5760405162461bcd60e51b8152600401610396906120eb565b610f8b8261197f565b606060096000838152602001908152602001600020805480602002602001604051908101604052809291908181526020016000905b8282101561128b576000848152602090819020604080516080810182526004860290920180546001600160a01b03168352600180820154848601526002820154928401929092526003015460ff16151560608301529083529092019101611229565b505050509050919050565b60606007805480602002602001604051908101604052809291908181526020016000905b828210156115285760008481526020908190206040805161016081018252600b86029092018054835260018101546001600160a01b0316938301939093526002830180549293929184019161130e90612118565b80601f016020809104026020016040519081016040528092919081815260200182805461133a90612118565b80156113875780601f1061135c57610100808354040283529160200191611387565b820191906000526020600020905b81548152906001019060200180831161136a57829003601f168201915b505050505081526020016003820180546113a090612118565b80601f01602080910402602001604051908101604052809291908181526020018280546113cc90612118565b80156114195780601f106113ee57610100808354040283529160200191611419565b820191906000526020600020905b8154815290600101906020018083116113fc57829003601f168201915b5050505050815260200160048201805461143290612118565b80601f016020809104026020016040519081016040528092919081815260200182805461145e90612118565b80156114ab5780601f10611480576101008083540402835291602001916114ab565b820191906000526020600020905b81548152906001019060200180831161148e57829003601f168201915b505050918352505060058201546020820152600682015460408201526007820154606082015260088201546080820152600982015460a0820152600a82015460c09091019060ff16600481111561150457611504611f13565b600481111561151557611515611f13565b81525050815260200190600101906112ba565b50505050905090565b611539611b5b565b6000828152600a602052604090205460ff1661158b5760405162461bcd60e51b8152602060048201526011602482015270141c9bda9958dd081b9bdd08199bdd5b99607a1b6044820152606401610396565b6007828154811061159e5761159e6120d5565b90600052602060002090600b020160405180610160016040529081600082015481526020016001820160009054906101000a90046001600160a01b03166001600160a01b03166001600160a01b0316815260200160028201805461160190612118565b80601f016020809104026020016040519081016040528092919081815260200182805461162d90612118565b801561167a5780601f1061164f5761010080835404028352916020019161167a565b820191906000526020600020905b81548152906001019060200180831161165d57829003601f168201915b5050505050815260200160038201805461169390612118565b80601f01602080910402602001604051908101604052809291908181526020018280546116bf90612118565b801561170c5780601f106116e15761010080835404028352916020019161170c565b820191906000526020600020905b8154815290600101906020018083116116ef57829003601f168201915b5050505050815260200160048201805461172590612118565b80601f016020809104026020016040519081016040528092919081815260200182805461175190612118565b801561179e5780601f106117735761010080835404028352916020019161179e565b820191906000526020600020905b81548152906001019060200180831161178157829003601f168201915b505050918352505060058201546020820152600682015460408201526007820154606082015260088201546080820152600982015460a0820152600a82015460c09091019060ff1660048111156117f7576117f7611f13565b600481111561180857611808611f13565b90525092915050565b60005b60008281526009602052604090205481101561197b57600082815260096020526040812080548390811061184a5761184a6120d5565b6000918252602080832060049092029091015485835260099091526040822080546001600160a01b0390921693509084908110611889576118896120d5565b906000526020600020906004020160010154905060016009600086815260200190815260200160002084815481106118c3576118c36120d5565b906000526020600020906004020160030160006101000a81548160ff02191690831515021790555042600960008681526020019081526020016000208481548110611910576119106120d5565b90600052602060002090600402016002018190555061192f8282611af6565b6001600460010160008282546119459190612153565b90915550506006805482919060009061195f908490612153565b9250508190555050508080611973906120ba565b915050611814565b5050565b600060078281548110611994576119946120d5565b90600052602060002090600b020160060154905060006064600154836119ba919061216a565b6119c49190612189565b90506004600784815481106119db576119db6120d5565b60009182526020909120600a600b9092020101805460ff19166001836004811115611a0857611a08611f13565b0217905550611a4f60078481548110611a2357611a236120d5565b600091825260209091206001600b9092020101546001600160a01b0316611a4a8385612153565b611af6565b600054611a65906001600160a01b031682611af6565b60078381548110611a7857611a786120d5565b90600052602060002090600b02016006015460036000828254611a9b9190612153565b9091555050604080518481526060602082018190526010908201526f141493d29150d508141052510813d55560821b60808201524281830152905133916000805160206121ac833981519152919081900360a00190a2505050565b6000826001600160a01b03168260405160006040518083038185875af1925050503d8060008114611b43576040519150601f19603f3d011682016040523d82523d6000602084013e611b48565b606091505b5050905080611b5657600080fd5b505050565b6040518061016001604052806000815260200160006001600160a01b03168152602001606081526020016060815260200160608152602001600081526020016000815260200160008152602001600081526020016000815260200160006004811115611bc957611bc9611f13565b905290565b828054611bda90612118565b90600052602060002090601f016020900481019282611bfc5760008555611c42565b82601f10611c1557805160ff1916838001178555611c42565b82800160010185558215611c42579182015b82811115611c42578251825591602001919060010190611c27565b50611c4e929150611c52565b5090565b5b80821115611c4e5760008155600101611c53565b634e487b7160e01b600052604160045260246000fd5b600082601f830112611c8e57600080fd5b813567ffffffffffffffff80821115611ca957611ca9611c67565b604051601f8301601f19908116603f01168101908282118183101715611cd157611cd1611c67565b81604052838152866020858801011115611cea57600080fd5b836020870160208301376000602085830101528094505050505092915050565b600080600080600060a08688031215611d2257600080fd5b853567ffffffffffffffff80821115611d3a57600080fd5b611d4689838a01611c7d565b96506020880135915080821115611d5c57600080fd5b611d6889838a01611c7d565b95506040880135915080821115611d7e57600080fd5b50611d8b88828901611c7d565b9598949750949560608101359550608001359392505050565b600060208284031215611db657600080fd5b5035919050565b600080600080600060a08688031215611dd557600080fd5b85359450602086013567ffffffffffffffff80821115611df457600080fd5b611e0089838a01611c7d565b95506040880135915080821115611e1657600080fd5b611e2289838a01611c7d565b94506060880135915080821115611e3857600080fd5b50611e4588828901611c7d565b95989497509295608001359392505050565b602080825282518282018190526000919060409081850190868401855b82811015611eb957815180516001600160a01b031685528681015187860152858101518686015260609081015115159085015260809093019290850190600101611e74565b5091979650505050505050565b6000815180845260005b81811015611eec57602081850181015186830182015201611ed0565b81811115611efe576000602083870101525b50601f01601f19169290920160200192915050565b634e487b7160e01b600052602160045260246000fd5b60058110611f4757634e487b7160e01b600052602160045260246000fd5b9052565b6000610160825184526020830151611f6e60208601826001600160a01b03169052565b506040830151816040860152611f8682860182611ec6565b91505060608301518482036060860152611fa08282611ec6565b91505060808301518482036080860152611fba8282611ec6565b91505060a083015160a085015260c083015160c085015260e083015160e08501526101008084015181860152506101208084015181860152506101408084015161200682870182611f29565b5090949350505050565b6000602080830181845280855180835260408601915060408160051b870101925083870160005b8281101561206557603f19888603018452612053858351611f4b565b94509285019290850190600101612037565b5092979650505050505050565b6020815260006120856020830184611f4b565b9392505050565b634e487b7160e01b600052601160045260246000fd5b600082198211156120b5576120b561208c565b500190565b60006000198214156120ce576120ce61208c565b5060010190565b634e487b7160e01b600052603260045260246000fd5b602080825260139082015272556e617574686f72697a656420456e7469747960681b604082015260600190565b600181811c9082168061212c57607f821691505b6020821081141561214d57634e487b7160e01b600052602260045260246000fd5b50919050565b6000828210156121655761216561208c565b500390565b60008160001904831182151516156121845761218461208c565b500290565b6000826121a657634e487b7160e01b600052601260045260246000fd5b50049056feaee8e5d3bbb2f71a951b5632cee20f7ac487b9f8ab4f66a236f7694b13af7c6aa2646970667358221220f94e91e60f96f815dee2a5a81d0388d4b6ba98223e00c033f9e8bfe7bce3223564736f6c634300080b0033",
  "linkReferences": {},
  "deployedLinkReferences": {}
}